:100000000C9436000C945E000C945E000C945E0020
:100010000C945E000C945E000C945E000C945E00E8
:100020000C945E000C945E000C945E000C945E00D8
:100030000C945E000C945E000C945E000C945E00C8
:100040000C941C020C945E000C948C020C946602BE
:100050000C945E000C945E000C945E000C945E00A8
:100060000C945E000C945E00BE02000411241FBEBE
:10007000CFEFD8E0DEBFCDBF21E0A8E3B1E001C003
:100080001D92AA3EB207E1F711E0A0E0B1E0E2E084
:10009000FDE002C005900D92A833B107D9F710E03A
:1000A000C5E3D0E004C02197FE010E947204C4336E
:1000B000D107C9F70E9426030C9474060C94000023
:1000C0003FB7F89480913F0190914001A091410188
:1000D000B091420126B5A89B05C02F3F19F00196AB
:1000E000A11DB11D3FBFBA2FA92F982F8827820FBE
:1000F000911DA11DB11DBC01CD0142E0660F771F0E
:10010000881F991F4A95D1F708958F929F92AF92B9
:10011000BF92CF92DF92EF92FF926B017C010E941F
:1001200060004B015C01C114D104E104F104F1F061
:100130000E946000DC01CB0188199909AA09BB095A
:10014000883E9340A105B10570F321E0C21AD108A1
:10015000E108F10888EE880E83E0981EA11CB11C0E
:10016000C114D104E104F10419F7DDCFFF90EF9041
:10017000DF90CF90BF90AF909F908F900895CF92D7
:10018000DF92EF92FF920F931F93CF93DF936C0157
:100190007A018B01C0E0D0E0CE15DF0581F0D801F7
:1001A0006D918D01D601ED91FC910190F081E02DD2
:1001B000C6010995892B11F02196EECF7E01C7016A
:1001C000DF91CF911F910F91FF90EF90DF90CF9033
:1001D0000895089580E090E00895FC01538D448DCA
:1001E000252F30E0842F90E0821B930B541710F0E2
:1001F000CF96089501970895FC01918D828D9817EF
:1002000061F0828DDF01A80FB11D5D968C91928DFA
:100210009F5F9F73928F90E008958FEF9FEF0895F7
:10022000FC01918D828D981731F0828DE80FF11DC0
:10023000858D90E008958FEF9FEF0895FC01918DDB
:10024000228D892F90E0805C9F4F821B91098F73D4
:100250009927089583E491E00E941E0121E0892BF3
:1002600009F420E0822F0895FC01848DDF01A80F9E
:10027000B11DA35ABF4F2C91848D90E001968F73CE
:100280009927848FA689B7892C93A089B1898C91ED
:10029000837080648C93938D848D981306C002883C
:1002A000F389E02D80818F7D80830895EF92FF9206
:1002B0000F931F93CF93DF93EC0181E0888F9B8D89
:1002C0008C8D981305C0E889F989808185FD26C049
:1002D000F62E0B8D10E00F5F1F4F0F731127E02ECE
:1002E0008C8DE8120CC00FB607FCFACFE889F989AB
:1002F000808185FFF5CFCE010E943401F1CF8B8D37
:10030000FE01E80FF11DE35AFF4FF0829FB7F8940A
:100310000B8FEA89FB89808180620AC09FB7F894BD
:10032000EE89FF896083E889F98980818370806420
:1003300080839FBF81E090E0DF91CF911F910F916B
:10034000FF90EF900895CF93DF93EC01888D882381
:10035000C9F0EA89FB89808185FD05C0A889B98932
:100360008C9186FD0FC00FB607FCF5CF808185FF0D
:10037000F2CFA889B9898C9185FFEDCFCE010E947B
:100380003401E7CFDF91CF91089580E090E0892B91
:1003900029F00E942A0181110C9400000895009711
:1003A00069F0FC0101900020E9F73197AF01481B8B
:1003B000590BBC0183E491E00C94BF0080E090E015
:1003C0000895CF93DF93EC0188819981009711F014
:1003D0000E941005198218821D821C821B821A82BB
:1003E000DF91CF9108950E945F060F931F93CF93E3
:1003F000DF93EC0188819981009729F02A813B8164
:100400002617370788F48B016F5F7F4F0E9499058D
:10041000009761F0998388831B830A832C813D8137
:10042000232B11F4FC01108281E001C080E0DF91F8
:10043000CF911F910F9108951F920F920FB60F92B7
:1004400011242F933F938F939F93AF93BF938091EA
:100450003B0190913C01A0913D01B0913E01309152
:100460003A0123E0230F2D3720F40196A11DB11D81
:1004700005C026E8230F0296A11DB11D20933A0165
:1004800080933B0190933C01A0933D01B0933E01CA
:1004900080913F0190914001A0914101B0914201B2
:1004A0000196A11DB11D80933F0190934001A0933F
:1004B0004101B0934201BF91AF919F918F913F91C4
:1004C0002F910F900FBE0F901F9018951F920F92B3
:1004D0000FB60F9211242F933F934F935F936F9317
:1004E0007F938F939F93AF93BF93EF93FF9383E497
:1004F00091E00E943401FF91EF91BF91AF919F91E4
:100500008F917F916F915F914F913F912F910F90BC
:100510000FBE0F901F9018951F920F920FB60F925B
:1005200011242F938F939F93EF93FF93E0915301A7
:10053000F09154018081E0915901F0915A0182FDBE
:1005400012C0908180915C018F5F8F7320915D015B
:10055000821751F0E0915C01F0E0ED5BFE4F958F6A
:1005600080935C0101C08081FF91EF919F918F91F9
:100570002F910F900FBE0F901F901895109246016B
:100580001092450188EE93E0A0E0B0E0809347012F
:1005900090934801A0934901B0934A018AE091E009
:1005A000909344018093430185EC90E09093500137
:1005B00080934F0184EC90E090935201809351011D
:1005C00080EC90E0909354018093530181EC90E093
:1005D000909356018093550182EC90E090935801DE
:1005E0008093570186EC90E090935A0180935901D3
:1005F00010925C0110925D0110925E0110925F01F9
:100600001092E1011092E0011092E3011092E201D8
:100610001092E5011092E4016AE070E080EE91E052
:100620000E94F501811104C080EE91E00C94E1017B
:100630008AE090E09093E5018093E40168E171E045
:100640008091E0019091E1010C946D06CF93DF93CE
:10065000CDB7DEB768970FB6F894DEBF0FBECDBF3B
:10066000789484B5826084BD84B5816084BD85B58D
:10067000826085BD85B5816085BD80916E00816099
:1006800080936E001092810080918100826080933F
:100690008100809181008160809381008091800041
:1006A0008160809380008091B10084608093B1006C
:1006B0008091B00081608093B00080917A00846066
:1006C00080937A0080917A00826080937A00809192
:1006D0007A00816080937A0080917A0080688093AC
:1006E0007A001092C100E0915301F091540182E030
:1006F0008083E0914F01F09150011082E09151010F
:10070000F09152018FEC808310925B01E0915701D0
:10071000F091580186E08083E0915501F0915601F7
:10072000808180618083E0915501F0915601808144
:1007300088608083E0915501F09156018081806846
:100740008083E0915501F091560180818F7D8083F7
:1007500083E291E00E94CF0184E391E00E94CF0107
:1007600068EE73E080E090E00E948500CE01019683
:100770007C01809138019091390101969093390163
:10078000809338011C8A1B8A1E8A1D8A188E1F8A34
:100790004AE0B7010E940604F70101900020E9F742
:1007A00031978F010E191F09B801CE0143960E949F
:1007B000F501811105C0CE0143960E94E10107C0F9
:1007C000188F0F8BB7018B899C890E946D064F890A
:1007D000588D6B897C8983E491E00E94BF0084E39B
:1007E00091E00E94CF018B899C890E94100564E6EC
:1007F00070E080E090E00E9485000E94C501B9CFC2
:100800008091E0019091E1010C941005BB274A30E2
:1008100031F4992322F4BDE2909581959F4F0C9479
:100820001204BB27FB015527AA27880F991FAA1F6F
:10083000A41710F0A41B83955051B9F7A05DAA33FB
:1008400008F0A95DA193009779F7B111B1931192C6
:10085000CB010C942B04DC01FC01672F71917723F1
:10086000E1F7329704C07C916D9370836291AE176B
:10087000BF07C8F308952F923F924F925F926F92F5
:100880007F928F929F92AF92BF92CF92DF92EF9220
:10089000FF920F931F93CF93DF93CDB7DEB7CA1BA1
:1008A000DB0B0FB6F894DEBF0FBECDBF09942A88CC
:1008B000398848885F846E847D848C849B84AA8474
:1008C000B984C884DF80EE80FD800C811B81AA8101
:1008D000B981CE0FD11D0FB6F894DEBF0FBECDBFCC
:1008E000ED010895EE0FFF1F0590F491E02D09949E
:1008F0000F931F93CF93DF938230910510F482E022
:1009000090E0E091E801F091E90120E030E0A0E022
:10091000B0E0309719F1408151810281138148176D
:100920005907C8F08417950769F4109731F01296AB
:100930000C93129713961C9327C00093E801109311
:10094000E90122C02115310519F04217530718F4A7
:100950009A01BD01EF01DF01F801DBCF211531055F
:10096000F9F0281B390B2430310580F48A819B81F2
:100970006115710521F0FB019383828304C090937C
:10098000E9018093E801FE01329644C0FE01E20FC6
:10099000F31F8193919322503109398328833AC000
:1009A0002091E6013091E701232B41F420910201CF
:1009B000309103013093E7012093E601209100017B
:1009C000309101012115310541F42DB73EB7409119
:1009D000040150910501241B350BE091E601F091D3
:1009E000E701E217F307A0F42E1B3F0B2817390786
:1009F00078F0AC014E5F5F4F2417350748F04E0F7B
:100A00005F1F5093E7014093E6018193919302C0E9
:100A1000E0E0F0E0CF01DF91CF911F910F910895B9
:100A2000CF93DF93009709F481C0FC0132971382C2
:100A30001282A091E801B091E901109781F4208120
:100A40003181820F931F2091E6013091E701281731
:100A5000390751F5F093E701E093E60167C0ED0136
:100A600020E030E0CE17DF0740F44A815B819E0131
:100A700041155105F1F0EA01F5CFD383C2834081DE
:100A80005181840F951FC817D90759F4888199811E
:100A9000840F951F0296918380838A819B81938323
:100AA00082832115310529F4F093E901E093E801EF
:100AB0003DC0E901FB83EA8349915991C40FD51FD9
:100AC000EC17FD0761F480819181840F951F0296D8
:100AD000E90199838883828193819B838A83E0E003
:100AE000F0E012968D919C911397009719F0FD01FB
:100AF000DC01F7CF8D919C9111979D012E5F3F4FA7
:100B0000820F931F2091E6013091E70128173907E2
:100B100069F4309729F41092E9011092E80102C0BB
:100B200013821282B093E701A093E601DF91CF9187
:100B30000895A0E0B0E0EFE9F5E00C943F04EC018B
:100B4000009721F4CB010E947804B4C0FC01E60FA9
:100B5000F71F9C0122503109E217F30708F4A8C0DF
:100B6000D9010D911C91119706171707B0F00530A8
:100B7000110508F49BC0C80104978617970708F46D
:100B800095C002501109061B170B019311936D9329
:100B90007C93CF010E94100589C05B01A01AB10AA5
:100BA0004C01800E911EA091E801B091E901612CE9
:100BB000712CE12CF12C109709F446C08D919C9179
:100BC0001197A815B905B1F56C0142E0C40ED11C0E
:100BD000CA14DB0478F14C018A189B08640142E0D6
:100BE000C40ED11C1296BC9012971396AC91B5E02E
:100BF000CB16D10440F0B282A38391828082D901C6
:100C00006D937C9309C00E5F1F4F800F911FF901F8
:100C100091838083EB2DFA2FE114F10431F0D70199
:100C20001396FC93EE93129741C0F093E901E09381
:100C3000E8013CC06816790608F43C017D01129673
:100C40000D90BC91A02DB7CF8091E6019091E70166
:100C500088169906E1F466167706C8F480910001BB
:100C600090910101009741F48DB79EB74091040126
:100C700050910501841B950BE817F907C8F4F09310
:100C8000E701E093E601F901718360830FC0CB01B6
:100C90000E9478047C01009759F0A801BE010E94CF
:100CA0006406CE010E941005C70104C0CE0102C037
:100CB00080E090E0CDB7DEB7EEE00C945B0481E01D
:100CC00090E0F8940C947406FB01DC0102C00190E2
:100CD0000D9241505040D8F70895FB01DC0101907E
:100CE0000D920020E1F7089510E0C5E3D0E004C0C4
:100CF000FE010E9472042196C633D107C9F7F89409
:020D0000FFCF23
:100D02000000EA012000000000005601BF00ED00D3
:100D1200A3011E01FC001001686F6C61206D756EED
:100D2200646F007072696D657261207072616374C4
:080D3200696361000D0A000075
:00000001FF
